:020000040800F2
:1000000088CC012025030008D36A00086D28000869
:10001000D16A0008191E000889910008000000003C
:10002000000000000000000000000000C38700087E
:10003000AD2100080000000083700008C18A00089C
:100040003F0300083F0300083F0300083F03000888
:100050003F0300083F0300083F0300083F03000878
:100060003F0300083F0300083F0300083F03000868
:100070003F0300083F0300083F0300083F03000858
:100080003F0300083F0300083F0300083F03000848
:100090003F0300083F0300083F0300083F03000838
:1000A0003F0300083F0300083F0300083F03000828
:1000B0003F0300083F030008C58B00083F0300080A
:1000C0003F0300083F0300083F0300083F03000808
:1000D0003F0300086D8E0008D18E0008318F0008A4
:1000E0003F0300083F0300083F0300083F030008E8
:1000F0003F0300083F0300083F0300083F030008D8
:100100003F030008A57200083F0300083F030008F2
:100110003F0300083F0300083F030008018C00086C
:100120003F0300083F0300083F0300083F030008A7
:100130003F0300083F0300083F0300083F03000897
:100140003F0300083F0300083F0300083F03000887
:100150003F0300083F0300083F0300083F03000877
:100160003F0300083F0300083F0300083F03000867
:100170003F0300083F0300083F0300083F03000857
:100180003F0300083F03000800F002F800F0B2F857
:100190000AA090E8000C82448344AAF10107DA45E2
:1001A00001D100F0A7F8AFF2090EBAE80F0013F082
:1001B000010F18BFFB1A43F001031847B0CE00002F
:1001C000D0CE00000A444FF0000C10F8013B13F0B1
:1001D000070408BF10F8014B1D1108BF10F8015BA0
:1001E000641E05D010F8016B641E01F8016BF9D193
:1001F00013F0080F1EBF10F8014BAD1C0C1B09D1EA
:100200006D1E58BF01F801CBFAD505E014F8016B5B
:1002100001F8016B6D1EF9D59142D6D370470000ED
:100220000023002400250026103A28BF78C1FBD8FF
:10023000520728BF30C148BF0B6070476E2900F0DD
:100240008683702900F08F8166290BF03C81652937
:100250000BF0398167290BF036816129AFF30080FB
:1002600003681B0A28BF41F08001692900F0008162
:10027000642900F0FD80752900F0FA806F2900F0F4
:100280007E84782900F05B81E92900F01984E42953
:1002900000F01684F52900F01384EF2900F07B8428
:1002A000F82900F05A810368DB0928BF41F080017A
:1002B000632900F08883732900F08D83E32900F01F
:1002C0000587F32900F00A87002070471FB50BF05F
:1002D000F5F800F059FF0400002000210AF09AFF11
:1002E000401C6060002000210AF07EFFE0601FBD1E
:1002F00010B510BD00F01AFF1146FFF7E7FF09F037
:1003000091FB00F0F7FF03B4FFF7F2FF03BC09F025
:10031000D2F8000030BF72B6704762B6704780F303
:10032000088870470948804709480047FEE7FEE70C
:10033000FEE7FEE7FEE7FEE7FEE7FEE7FEE7FEE795
:1003400004480549054A064B70470000C58A000865
:100350008901000888C6012088CC012088C80120B6
:1003600088C80120704700001CB50C46064B7B4432
:1003700069460090204600F004FB044600206946D0
:1003800000F012FB20461CBD370600000FB40449E4
:1003900010B503AA029800F023FB10BC5DF814FB13
:1003A0000C0000200FB41CB5084B06AA7B4469461C
:1003B0000090059800F0E5FA04460020694600F038
:1003C000F3FA20461CBC5DF814FB0000F9050000A0
:1003D00070B5044685690068C10601D5302600E085
:1003E0002026C00707D070BDD4E9012130469047D0
:1003F000206A401C20626D1EF6D570BD70B50446A3
:1004000085690078C00707D170BDD4E9012120209B
:100410009047206A401C20626D1EF6D570BD70B5F5
:100420000C460546012A05D02878800600D5EA69E1
:10043000002302E0012305E05B1C934202D2E05C52
:100440000028F9D1A869E618C01AA861286A1844DA
:1004500028622846FFF7BCFF04E0D5E9012114F823
:10046000010B9047B442F8D32846FFF7C7FF70BD91
:100470002DE9F0410646002410687529314616A57D
:1004800010D000F0F9F9002802DA404213A507E085
:1004900031688A0701D512A502E0490704D511A5E4
:1004A000012401E000F0F1F900210A2206F12407FD
:1004B00009E0B0FBF2FCB0FBF2F302FB1C003030B1
:1004C00078541846491C0028F3D123462A46304662
:1004D000BDE8F04100F0E2B9000000002D0000008E
:1004E0002B00000020000000F0B40D460188090533
:1004F00002D5214C7C4402E01F4C7C440E34002188
:1005000000F1240608E002F00F071209E75D42EA55
:1005100003721B097754491C52EA0307F3D102788E
:100520000023120704D5702D06D009B1022311341F
:100530002246F0BC00F0B2B901231034F8E770B5E0
:1005400004460D462146106800F09FF902462946F0
:100550002046BDE870400023C6E7D21D22F0070305
:10056000D3E90023C0E70368126843F02003036067
:100570000823C3610023B7E7B8C700002DE9F05F87
:10058000894604464FF0000ADFF874B1FB44C0F816
:1005900020A02046E1688847002874D0252806D08E
:1005A000D4E901219047206A401C2062F1E700262F
:1005B0005F462046E16888472028054607DB312D45
:1005C00005D2781910F8200C08B10643F1E7B007FE
:1005D00001D526F00406C4F81CA00027C4F818A012
:1005E0002A2D09D0284608F05FFF38B304EB8708AE
:1005F000303DC8F8185019E059F8041B204604EBA8
:1006000087029161E1688847012F054618D1E069AA
:10061000002820DA26F020061DE0D8F8180000EBAC
:10062000800005EB40003038C8F818002046E1682B
:100630008847054608F038FF0028EED1012F0AD080
:100640002E2D08D12046E16888477F1C0546022FE1
:1006500046F02006C4DBA069002803DA404246F0D9
:100660000106A061F00701D026F010066C2D0BD01A
:10067000682D09D04C2D39D06A2D35D0742D35D048
:100680007A2D33D016E038E0E1682F4620468847BF
:10069000B842054609D16C2F26D04FF48060E1683E
:1006A000064320468847054604E06C2F1AD04FF4D5
:1006B000807006430DB3A5F14100192802D82035FA
:1006C00046F400664A462946204626604E46FFF715
:1006D000B5FD80B101280BD0F61D26F0070000F112
:1006E000080956E74020E4E78020D8E70020D6E755
:1006F00006F104094DE7284652E7206ABDE8F09F5D
:1007000048C7000030B505460B462A4613F8014B92
:1007100012F8010B08B1A042F8D01CB1002802D099
:100720006D1CF1E7284630BD10B5431C02E010F8FF
:10073000011B71B18107FAD14FF0013202C88C1A46
:100740008C4314EAC211F9D0C01A0A0603D0C01EA5
:1007500010BDC01A10BD0A0401D0801E10BD0902D0
:10076000FCD0401E10BD032A40F2308010F0030C74
:1007700000F0158011F8013BBCF1020F624498BFF4
:1007800011F801CB00F8013B38BF11F8013BA2F191
:10079000040298BF00F801CB38BF00F8013B11F00C
:1007A000030300F00382083AC0F0088051F8043BCC
:1007B000083A51F804CBA0E80810F5E7121D5CBF19
:1007C00051F8043B40F8043BAFF30080D20724BF4C
:1007D00011F8013B11F801CB48BF11F8012B24BFE0
:1007E00000F8013B00F801CB48BF00F8012B70472F
:1007F0004FF0013C50F8042B51F8043B9A4221D1B0
:10080000A2EB0C03934313EACC1317D150F8042B3B
:1008100051F8043B9A4215D1A2EB0C03934313EA1F
:10082000CC130BD150F8042B51F8043B9A4209D158
:10083000A2EB0C03934313EACC13DBD04FF0000080
:10084000704700BFD01A01BAB1FA81F101F0180166
:1008500022FA01F0CB40C1F12001DBB2C0B2C01AD4
:100860002CFA01F3D11A914311EAC311E6D1704772
:10087000704770477047704709684A0501D540B214
:100880007047C905FCD500B2704709684A0501D513
:10089000C0B27047C905FCD580B270472DE9F0475A
:1008A0000D4699469246044600F1240801688806E0
:1008B00004D5E06921F01001216000E00120A84288
:1008C00001DD471B00E00027A1697A1902EB09004E
:1008D000081AA0612078C00602D42046FFF778FDF0
:1008E000002608E0D4E901211AF806009047206AA2
:1008F000401C761C20624E45F4DB2078C0060AD5E9
:100900002046FFF765FD06E0D4E90121302090473D
:10091000206A401C2062381EA7F10107F4DC07E0C2
:10092000D4E9012118F805009047206A401C206294
:10093000281EA5F10105F3DC2046FFF75FFD2078B6
:10094000000602D50220BDE8F0870120FBE7116810
:100950000268006A530501D508700AE0D30501D585
:10096000088006E0130603D5C217C1E9000200E0C3
:10097000086001207047000001694A1C0261087884
:10098000704700B58FB0CDE90131002105910549CF
:100990007944CDE9031011466846FFF7EFFD0FB02B
:1009A00000BD0000E5FFFFFF0A6802F8010B0A60C6
:1009B000704710B5436913B1AFF3008001E0FFF752
:1009C0002EFD012010BD127800F124010A700022D2
:1009D0004A700122EDE711684FF0FF32E9E70000AD
:1009E000074B70B50D467B44FFF7CBFF0446284606
:1009F00000F078FB10B14FF0FF3070BD204670BDA5
:100A0000EB8F00002DE9FF5F15468A460446DFF8AC
:100A1000AC80F8440027D8E900103E46CDE900102C
:100A200010E03AF816106A4602A800F05FFB411C7D
:100A300007D02178890603D5E269391891420DD88B
:100A40000744761C2078800602D5E069B84205DDAF
:100A5000AE42E6DB3AF816000028E2D1A069C01BDE
:100A6000A0612046FFF7B4FCD8E90010CDE90010E2
:100A7000002017E03AF818106A4602A800F036FB8A
:100A8000B0F1FF3F81460BD000250DF1080B05E0CA
:100A9000D4E901211BF8050090476D1C4D45F7D3A3
:100AA00008F10100B0428046E4DB206A384420624D
:100AB0002046FFF7A3FCBDE8FF9F0000D6C2000060
:100AC0002DE9F0418046D21D22F007020025D2E92F
:100AD0000002F52915A614D0011E72F1000106DAF4
:100AE0000023D0EB030063EB020211A608E0D8F864
:100AF00000108B0701D50FA602E0490701D50EA60D
:100B000001251146002408F1240704E000F080F8D4
:100B100030323A55641C50EA0102F7D12B46324676
:100B200021464046BDE8F041FFF7B8BE0000000096
:100B30002D0000002B0000002000000030B4002138
:100B400000F1240408E002F00705D208303542EA3B
:100B50004372DB086554491C52EA0305F3D104686B
:100B6000002310A2250707D5A40600D421B1C4692B
:100B700001230DA2641EC46130BCFFF78FBE10B507
:100B8000044621461068FFF780FE02462046BDE875
:100B900010400023D2E7D21D22F00701D1E9002343
:100BA000CCE70000000000003000000010B5203A43
:100BB000C0F00B80B1E81850203AA0E81850B1E816
:100BC0001850A0E81850BFF4F5AF5FEA027C24BFCC
:100BD000B1E81850A0E8185044BF18C918C0BDE8C3
:100BE00010405FEA827C24BF51F8043B40F8043B8C
:100BF00008BF7047D20728BF31F8023B48BF11F841
:100C0000012B28BF20F8023B48BF00F8012B70479A
:100C100030B5B0F10A024FEA900E71F100034EEACE
:100C2000817EB0EB0E0061EB91014FEA101E4EEA9F
:100C3000017E10EB0E0041EB11114FEA102E4EEA2F
:100C4000016E10EB0E0041EB11214FEA104E4EEAFF
:100C5000014E10EB0E0041EB1141401841F1000133
:100C60004FEAD00040EA41704FEAD10110EB800515
:100C70004FEA810444EA907444EB01046D1944EB9B
:100C80000404521BA3414FF0000348BF0A3200D5B1
:100C900030BD401C41F1000130BD70472DE9FF4FD0
:100CA0000C461E464FF0FF378BB0D2E90001DDF84D
:100CB00060800A908A46C1F30A5505B93D46002175
:100CC00008464FF00000BAF1000F00F4400005DACA
:100CD00000EB80004FF4400101EA50004FEA9059C8
:100CE000B9F1010F00DDB9460A9850EA4A000ED06A
:100CF00044F61050A5F2FF3545432F14B8F1000F0C
:100D00001ED07542291E1EDDC9F100021CE0B8F19B
:100D1000010F4FF0000001D0302103E0F24305E065
:100D20002154401CB042FBDB3046002200212154FC
:100D30000B99C1F80880C1E900200FB0BDE8F08F21
:100D4000BD1B6D1CDEE74A4600DA694206A800F0CA
:100D50005FFA06AB93E8070003AB83E80700504651
:100D60000A9900F0D5FA8DE80700A0F500501F3869
:100D700000900398002D0ADD42F21F014A46084404
:100D8000002303A90390684600F03EFD09E0A0F5AA
:100D900000504A461F38002303A90390684600F01C
:100DA00048FD8DE807000004000C03D04FF0FF3031
:100DB000410800E01046B8F1000F03D00022009275
:100DC00015461EE0751E05D4FFF722FF303262552E
:100DD0006D1EF9D5B3460122084302D000227F1CC4
:100DE00004E02078302801D100227F1E002A0997D4
:100DF00084D01DE0112D07DAFFF70AFF303262556B
:100E00006D1C50EA0102F5D1084302D00098C8B128
:100E10000EE00021681E05E0235C625C63542254EE
:100E2000401E491C8142F7DBAB46A81B401E0990BF
:100E3000002004F80B000B98099AC0F80880C0E95C
:100E4000002B7AE711264FF0000857E72DE9F04F05
:100E500088460446D21D22F0070191B0D1E9000175
:100E6000CDE90A0108F008FB02460B98C00F01D03B
:100E70002D2007E02068810701D52B2002E02021EA
:100E800001EAC000032A099001D0072A05DB0346C6
:100E90004146204600F07CF90BE12078800601D520
:100EA000E06900E00620B8F1650F814606D0B8F190
:100EB000660F18D0B8F1670F70D131E00020B9F19A
:100EC000110F009001DB112301E009F101030AAACF
:100ED00001A90CA8FFF7E2FEDDE90C70002609F17C
:100EE0000105834647E001204B4600904FF0004744
:100EF0000AAA01A90CA8FFF7D1FEDDE90DB00C99F3
:100F00005D46002610B909F101000D18B9EB050086
:100F100003D4C0F1FF3609F10105A5EB09002BE070
:100F2000B9F1010F01DA4FF001090020B9F1110FF9
:100F30000090484601DD112300E003460AAA01A9FA
:100F40000CA8FFF7ABFEDDE90C704D46002683468A
:100F5000207800070AD4AB4500DA5D4601A8012DD0
:100F600004DD411911F8011C302907D04F4502DA80
:100F700017F1040F04DA012082460FE06D1EEEE740
:100F8000002F02DCED1B3E4403E0781CA84200DD8C
:100F90007D1CB81B00F1010A4FF0004720780007C4
:100FA00003D4AA4501DB4FF0FF3A0021B7F1004F0F
:100FB0000DF143088DF8431024D002202B23002F7D
:100FC00001DA7F422D230A21021EA0F1010000DC7C
:100FD0005FB197FBF1FC97FBF1F201FB1C7C17461C
:100FE0000CF1300C08F801CDEEE7A8F10100037018
:100FF0002188090501D5452100E06521A0F10108FE
:1010000000F8011C09980FA9A1EB0807FF1D00B10A
:101010000120411901EBEA70A1693844081A401E09
:10102000A0612078C00602D42046FFF7D1F90998C4
:1010300028B1D4E901219047206A401C2062207821
:10104000C00622D52046FFF7C3F91EE0002E04DBC0
:10105000B34502DD01A8805D00E03020D4E9012124
:101060009047206A401C2062761CAAF101005FEACA
:10107000000A0AD100F088F8C0680168405CD4E931
:1010800001219047206A401C2062281EA5F101051D
:10109000DCDC07E0D4E9012118F8010B9047206A55
:1010A000401C2062381EA7F10107F3DC2046FFF741
:1010B000A5F9032011B041E610B5436913B1AFF3B0
:1010C000008001E0FFF79EFC012010BD128800F1B6
:1010D000240182840022C2840122EDE711684FF0CE
:1010E000FF32E9E7007B00F08000704770B51646DC
:1010F0000C46054600F040F8036893F8010101280A
:1011000006D0FF2C0FD8185D68B101202C7070BD7F
:10111000D3F807013246214603F207130344284659
:10112000BDE8704018474FF0FF3070BD754600F0C5
:10113000EBF8AE4605006946534620F007008546A9
:1011400018B020B5FFF7FCF8BDE820404FF00006CE
:101150004FF000074FF000084FF0000B21F007019F
:10116000AC46ACE8C009ACE8C009ACE8C009ACE8E2
:10117000C0098D467047000010B500F005F8001D4D
:1011800010BD00BF91A000000048704744C6012078
:101190002DE9F0411F46044603260168072A01F4A1
:1011A000006004DB08B116A505E016A503E008B150
:1011B00015A500E015A521F010002060A069C01E53
:1011C000A0610FB1401EA0612046FFF701F94FB1A9
:1011D000D4E9012138469047206A401C2062C01C97
:1011E000206206E0206AFAE7D4E9012115F8010B34
:1011F0009047761EF8D22046FFF700F9BDE8F0814F
:101200004E414E006E616E00494E4600696E6600AA
:101210002DE9F047814616468AB0354878440DC816
:101220008DE80D0032487844801C03AC0DC884E87A
:101230000D0041F69B300844372190FBF1F290FB02
:10124000F1F5A5F1800501FB12041B3C02D56442B7
:10125000012000E00020DFF898A080460027FA4433
:10126000AAF1BE0A0EE0E0070AD03246684607EB54
:10127000470101230AEB810100F0DBFA8DE807004A
:1012800064107F1C002CEED1194F7F44AE3F19E053
:10129000E80715D007EB04100DF1180A90E80E00CE
:1012A0008AE80E00C068F04201D1981908903246D1
:1012B000012306A903A800F0BCFA03AB83E80700EA
:1012C0006D10641C002DE3D14FF0010332466946D6
:1012D000B8F1000F03A802D000F096FA01E000F088
:1012E000A8FAC9E90001C9F808200AB0BDE8F087EA
:1012F00050BB000010B50446AFF300802046BDE8A7
:101300001040FFF700B800000048704724C60120D5
:101310005FEA400C08BF91F0000F4FEA8C234FEAC0
:10132000C12243EA51514FEA1C5018BF00F5F0406A
:101330004FEA300018BF41F000415FEA6C5C00F0FA
:101340002980BCF1FF3F08BF40F080407047130C7C
:1013500006BF12044FF0100C4FF0000C130E04BF28
:1013600012020CF1080C130F04BF12010CF1040C53
:10137000930F04BF92000CF1020CD30F04BF520074
:101380000CF1010C11464FF00002A0F11F00A0EB80
:101390000C00704711F0004F08BF704731F000415A
:1013A0003FF4D5AF0B0C06BF09044FF0100C4FF003
:1013B000000C0B0E04BF09020CF1080C0B0F04BF4C
:1013C00009010CF1040C8B0F04BF89000CF1020C15
:1013D000CB0F04BF49000CF1010CCCF12003A0EBB2
:1013E0000C0022FA03F302FA0CF241EA030100F1C5
:1013F0000100704720F07F4C80EA030023F07F4714
:10140000ACEB070303F57C5300F0004003F1FF034E
:101410002DE980494FEA154B09B44FEA144325EAF8
:101420000B4E24EA03480FF2042606EB1327490863
:101430003E785FEA320203FB0667C7F5000707FB49
:1014400006F64FEA54374FEAD64606F1020607FB86
:10145000066CCCF1005C4FEA1C472CEA074C07FBFA
:1014600006F40CFB06F504EB15464FEA961634BF5E
:1014700000204FF000404FEAD13706FB07FC4FEA4F
:101480001C4C0CFB0BF7D21B03FB0CF761EB0701A9
:101490000CFB0EF7B0EB074072EB17420CFB08F7A2
:1014A00034BFA2EB0742B2EB074261EB17414FEAB0
:1014B0000C444FEA910706FB07FC4FEA1C4C0CFB5F
:1014C0000BF7B0EBC74072EB573203FB0CF734BF9E
:1014D000A2EBC742B2EBC74261EB57310CFB0EF7F0
:1014E000B0EBC70072EB57720CFB08F734BFA2EBEE
:1014F000C702B2EBC70261EB5771039F4FEA8161EC
:1015000041EA921104EBCC044FEAD1374FEA8262F0
:1015100006FB07FC42EA90124FEA80604FEA1C4C3F
:101520000CFB0BF7D21B03FB0CF761EB07010CFB69
:101530000EF7B0EB074072EB17420CFB08F734BF15
:10154000A2EB0742B2EB074261EB17414FEA8C5521
:101550004FEA910704EB9C2406FB07FC4FEA1C4C66
:101560000CFB0BF7B0EBC74072EB573203FB0CF7E9
:1015700034BFA2EBC742B2EBC74261EB57310CFB61
:101580000EF7B0EBC70072EB57720CFB08F734BFD5
:10159000A2EBC702B2EBC70261EB577115EB4C250A
:1015A0004FEA816141EA92114FEA82624FEAD137F4
:1015B00042EA901206FB07FC44F100044FEA806007
:1015C0004FEA1C4C0CFB0BF7D21B03FB0CF761EB37
:1015D00007010CFB0EF7B0EB074072EB17420CFB58
:1015E00008F734BFA2EB0742B2EB074261EB1741A9
:1015F00015EB1C154FEA813141EA92414FEA8232E4
:1016000042EA90424FEA80304FEA0C7644F10004FF
:1016100048EA03434EEA0B484FF0000EB2EB080CC9
:1016200071EB030724BF624639464EEB0E0E4FF0B6
:10163000000B0018524149414BEB0B0BB2EB080C6D
:1016400071EB03077BF1000B24BF624639464EEB7A
:101650000E0E4FF0000B0018524149414BEB0B0BA3
:10166000B2EB080C71EB03077BF1000B24BF624661
:1016700039464EEB0E0E51EA020718BF46F001063E
:1016800016EB0E7655F1000254F1000103D5BDE8CA
:101690008901BDE80088BDE88901BDE80048B619A8
:1016A000524141EB0101A3F10103704780807F7E2D
:1016B0007D7C7B7A797877767675747372717170C8
:1016C0006F6E6E6D6C6C6B6A6A696868676666657A
:1016D0006464636362616160605F5F5E5E5D5D5C08
:1016E0005C5B5B5A5A595958585757565655555579
:1016F0005454535352525251515050504F4F4F4ED9
:101700004E4D4D4D4C4C4C4B4B4B4A4A4A49494926
:101710004848484747474746464645454544444468
:10172000444343434342424242414141002B9C4691
:1017300030D477002BD01CB54FEA370703B44FF0F5
:1017400010004FF01001BAF1000F06D0BCF1000FED
:10175000DCBF40F0080040F008014FF000000FBC73
:10176000BDE810400BF1010BBBF1010F08BF5FEAB0
:10177000170722BF12F1010211F101014FF00041E0
:1017800043F1000300F0004043EA00007047F9D342
:101790005708D0E746EA064613F1400F4FEA1646CF
:1017A0001FDD13F1200FDFBF16430A46002120334F
:1017B0005B42BED0C3F1200746EA064602FA07F7AD
:1017C0004FEA164646EA0706C3F1200722FA03F25B
:1017D00001FA07F721FA03F14FF0000342EA07028A
:1017E000A7E746EA020646EA06464FEA164646EAF2
:1017F0000106BCBF46EA0646360C4FF000034FF028
:1018000000024FF0000194E72DE9804C9A46934680
:1018100070B491E8380007C831EA400C48BF34EA98
:10182000430C03D5FFF7E6FDFFF780FFF0BCBDE8F2
:10183000008C2DE9804C9A46934670B491E83800AC
:1018400007C810F0804F08BF13F0804F03D100F09D
:1018500005F8FFF76BFFF0BCBDE8008C20F07F4778
:1018600080EA030023F07F4C07EB0C03A3F57C53C5
:1018700000F00040A3F1FE0392F0000F00F0B380EF
:1018800095F0000F00F077802DE901494FEA1140F3
:101890004FEA144621EA004800FB06FC24EA06470A
:1018A00008FB06F607FB08F800FB07F718EB0648ED
:1018B0004CEB164C4FEA124B18EB07484FEA154613
:1018C0004CEB174022EA0B4E0BFB06FC25EA0647C1
:1018D0000EFB06F607FB0EFE0BFB07F71EEB064E94
:1018E0004CEB164C4FF000061EEB074E4CEB174B23
:1018F00018EB0B0840F1000018EB0E0B58EB00083A
:1019000040F100008F1A4FF000013CBFC943661B35
:1019100014BFB5EB040C00213CBFC943F61B4FEAD2
:1019200017444EEA8E0E27EA04454FEA1C4704FB93
:1019300007622CEA074C05FB07F70CFB05F604FBD6
:101940000CFC16EB074642EB174216EB0C4642EB3B
:101950001C421BEB060658EB0202414146EA9E067A
:1019600001D5BDE80189B619524141EB0101A3F14E
:101970000103BDE801894FEA14454FEA114724EA03
:10198000054621EA074C05FB07F406FB07F70CFBAD
:1019900006F105FB0CFC11EB074144EB17444FEA41
:1019A000124711EB0C4144EB1C4422EA074C05FBA7
:1019B00007F206FB07F70CFB06F605FB0CFC16EB23
:1019C000074642EB174216EB0C4642EB1C456A18E1
:1019D00054F1000148BF7047B619524141EB010173
:1019E000A3F10103704795F0000F37D04FEA114281
:1019F0004FEA144721EA024624EA074C02FB07F1AA
:101A000006FB07F70CFB06F402FB0CFC14EB074487
:101A100041EB17414FEA154714EB0C4441EB1C41D5
:101A200025EA074C02FB07F506FB07F70CFB06F659
:101A300002FB0CFC16EB074645EB174516EB0C4674
:101A400045EB1C42121951F1000148BF7047B6190D
:101A5000524141EB0101A3F1010370474FEA1445E4
:101A60004FEA114724EA054621EA074C05FB07F136
:101A700006FB07F70CFB06F24FF0000605FB0CFC1B
:101A800012EB074241EB174112EB0C4251EB1C41A8
:101A900048BF7047921841EB0101A3F10103704761
:101AA0002DE9F84F0027DFF87CA29F4DDFF87C92EC
:101AB000BB464FF0F0084FF6FF74052F7ED2DFE8EB
:101AC00007F0033266AFEE00761C0094F6B22A8867
:101AD000A0236421002001F02DF9102394A2642199
:101AE0000020CDF8008006F0B3FF05F07DF8002857
:101AF00064D10120CAF8A00205F058F8CAF8A0B2D3
:101B00000028F5D100942A88A023782101F012F949
:101B100010238AA278210020CDF8008006F098FFDB
:101B2000002601272EE0761C0094F6B22A88A02316
:101B30006421002001F0FEF8102383A2642100201C
:101B4000CDF8008006F084FF05F04EF800287FD124
:101B50000121CAF8A012022005F028F8CAF8A0B2A4
:101B6000002875D100942A88A023782101F0E2F89A
:101B7000102372A278210020CDF8008006F068FFC3
:101B8000002602274FF4C87007F0E4FC95E70094A4
:101B90002A88A0236421002001F0CCF810236FA232
:101BA00064210020CDF8008006F052FF05F0AEF869
:101BB000009407002A884FF0A00300E048E019D005
:101BC0006421002001F0B6F8102368A264210020EF
:101BD000CDF8008006F03CFF384606F083FE002674
:101BE00037464FF4966007F0B5FC4FF4C87007F025
:101BF000B1FC69E77821002001F09CF8102362A273
:101C000078210020CDF8008006F022FF4FF4966086
:101C100007F0A0FC4FF4C87007F09CFC052E1DD007
:101C200000942A88A0236421002001F083F847460D
:101C300010235BA264210020CDF8008006F008FF8D
:101C400005F0F0F898B100274FF4966007F082FC99
:101C50004FF4C87007F07EFC052E97D100942A88B7
:101C6000A0236421002001F065F8BDE8F88F0094FE
:101C70002A88A0237821002001F05CF810234CA2D0
:101C800078210020009706F0E3FE4FF4966007F0FD
:101C900061FC4FF4C87007F05DFC052EDED00094A7
:101CA0002A88A0236421002001F044F81F4805F091
:101CB00067F9B9F800100220491C89B2A9F802108E
:101CC00005F034F938B100274FF4C87007F042FC32
:101CD000052EC3D0F8E600942A88A02364210020B2
:101CE00001F028F8102337A278210020CDF80080D9
:101CF00006F0AEFE0D4805F043F91020009035487F
:101D000003230188B9F800000A1A5021382004F092
:101D100047FE40F2DC5007F01DFCA023F0220094A7
:101D20009FE7000000804242D8030020000000200E
:101D3000C7EBB0B4D6B8CEC600000000D6B8CEC649
:101D4000D5FDB3A300000000C7EBB0B4D4D9B0B444
:101D5000D2BBB4CED6B8CEC600000000B6D4B1C84F
:101D6000C1BDB4CED6B8CEC600000000B6D4B1C84E
:101D7000CAA7B0DCA3ACC7EBD6D8D0C2C2BCC8EBF4
:101D8000D6B8CEC600000000B6D4B1C8B3C9B9A653
:101D90002CC1BDB4CED6B8CEC6D2BBD1F90000009E
:101DA000C9FAB3C9D6B8CEC6C4A3B0E500000000D6
:101DB000C9FAB3C9D6B8CEC6C4A3B0E5B3C9B9A6EB
:101DC00000000000C2BCC8EBD6B8CEC6B3C9B9A6E5
:101DD00000000000040300207CB50121202005F054
:101DE00051F901208DF8040000208DF80600032031
:101DF0008DF805000220074D4FF480748DF8070020
:101E000000946946284600F07DFC2146284600F0F3
:101E1000E1FC7CBD00140240FEE7000010B5C021CB
:101E2000064806F0B1FF4FF4FA7007F093FB044840
:101E300008F018F903490020888010BD0004004014
:101E400088CD00080000002070B500254FF48034D4
:101E500005E0802005F014FA08B144B101E0641EE9
:101E6000F7D240F2FF5005F0E3F9284670BD032099
:101E700070BD000010B514490446086810F0450F05
:101E8000FBD0042005F0FCF920B1042005F0D0F9C6
:101E9000032010BD012005F0F3F920B1012005F069
:101EA000C7F9012010BD084824380068A04201D0BD
:101EB000102010BD40F2FF5005F0BAF9024820385A
:101EC000006800F0080010BD342C014010B500245B
:101ED0004FF480310E4A09E0106810F0450F05D02C
:101EE00009B1400705D5032404200CE0491EF3D2B4
:101EF000F7E7012005F0C4F918B10124204605F0E8
:101F000097F940F2FF5005F093F9204610BD00000C
:101F1000342C014010B50A49086810F0450FFBD079
:101F2000042005F0ADF920B1042005F081F903206B
:101F300010BD40F2FF5005F07BF9002010BD0000FD
:101F4000342C014070B50D461C4906460024086833
:101F500010F0450FFBD0042005F092F920B10420C9
:101F600005F066F9032070BD012005F089F920B164
:101F7000012005F05DF9012070BD1048243800688B
:101F8000B04212D140F2FF5005F052F90B48203810
:101F9000026812F4604F03D0900404D5132070BD82
:101FA000100C288007E0500401D5102070BD1004EB
:101FB00001D50F2070BD204670BD0000342C0140BB
:101FC00010B500244FF480310B4809E0026812F08C
:101FD000450F05D009B1500705D50324042006E0BC
:101FE000491EF3D2F7E7500603D50024402005F040
:101FF0001FF9204610BD0000342C01400029016863
:1020000002D041F0010101E021F0010101607047BF
:102010002DE9F043016821F0010101600021016018
:1020200041608160C1600161212141613C493C4ABC
:102030003D251039904202D18D60BDE8F083384AC9
:102040004FF474661832904201D18E60F5E7344A3D
:102050004FF474173032904201D18F60EDE7304A6F
:102060004FF0746C4832904202D1C1F808C0E4E7E6
:102070002B4B2C4A6033984201D1CA60DDE7284CD3
:10208000294B7834A04201D1CB60D6E7DFF89080AD
:10209000264C08F19008404501D1CC60CDE7DFF82F
:1020A00080804FF03D5908F1A808404502D1C1F8A1
:1020B0000C90C2E71E49DFF878800839404501D10D
:1020C0000D60BAE71A4D1835A84201D10E60B4E789
:1020D000174D3035A84201D10F60AEE7144D483599
:1020E000A84202D1C1F800C0A7E7114D10496035E0
:1020F000091FA84201D10A609FE70D4A7832904239
:1021000001D10B6099E70A4A9032904201D10C60EC
:1021100093E7074AA83290428FD1C1F800908CE72C
:10212000106002403D000020400F002000003D20D4
:10213000106402400029016802D041F0200101E052
:1021400021F0200101607047014600200968C9079D
:1021500000D001207047000030B50368124ACC68F7
:1021600013400A682243D1E905452C432243CC6938
:1021700022430C6A22434C6A22438C6A22434C6BF2
:1021800022438C6B22431A430260426922F0070308
:10219000D1E90B2422431A4342610A6942604A682A
:1021A00082608968C16030BD3F801CF070470000CC
:1021B000F8B52A4EF0244FF6FF7500953288A0231B
:1021C0006421002000F0B6FD102325A26421002028
:1021D000009406F03DFC102324A2782100200094F6
:1021E00006F036FC642007F0B5F9002000F0E0FBB3
:1021F000032817D0022802D104F0BEFC0746002FA6
:10220000DBD100953288A0237821002000F092FDD8
:1022100010231CA28C210020009406F019FCC82079
:1022200007F098F91B4804F0ABFE102000901A4804
:102230001849032300880988421A5021382004F0E5
:10224000AFFB00953288A0236421002000F072FDCE
:10225000BDE8F840322007F07DB90000D803002027
:10226000C9BEB3FDD6B8CEC6000000004B455932FA
:102270003AC9BEB3FD2C4B45595F55503AB7B5BB73
:10228000D8000000C9BEB3FDD6B8CEC6B3C9B9A642
:1022900000000000000000200403002021283CD2A0
:1022A000DFE800F011131517191B1D1F2123252727
:1022B0003B3B3B3B27293B3B3B2B3B3B2D2F3133D0
:1022C000353B3B37390016A0704716A0704719A060
:1022D00070471DA0704721A0704728A070472FA00D
:1022E000704735A0704742A0704744A0704747A090
:1022F00070474AA070474DA0704750A0704758A043
:1023000070475BA070475DA0704760A0704764A0F5
:10231000704768A070476AA070476CA070470000C3
:102320004F4B0000CAFDBEDDB0FCBDD3CAD5B4ED35
:10233000CEF30000B4ABB8D0C6F7C9CFC3BBD3D07F
:10234000CAD6D6B800000000C2BCC8EBD6B8CEC60C
:10235000CDBCCFF1CAA7B0DC00000000D6B8CEC615
:10236000CDBCCFF1CCABB8C9A1A2CCABB5ADB6F862
:10237000C9FAB2BBB3C9CCD8D5F70000D6B8CEC61F
:10238000CDBCCFF1CCABCAAAA1A2CCABBAFDB6F8FA
:10239000C9FAB2BBB3C9CCD8D5F70000D6B8CEC6FF
:1023A000CDBCCFF1CCABC2D2B6F8C9FAB2BBB3C97F
:1023B000CCD8D5F700000000D6B8CEC6CDBCCFF142
:1023C000D5FDB3A3A3ACB5ABCCD8D5F7B5E3CCABB7
:1023D000C9D9A3A8BBF2C3E6BBFDCCABD0A1A3A9CE
:1023E000B6F8C9FAB2BBB3C9CCD8D5F70000000023
:1023F000D6B8CEC6B2BBC6A5C5E40000C3BBCBD120
:10240000CBF7B5BDD6B8CEC600000000CCD8D5F706
:10241000BACFB2A2CAA7B0DC00000000C9BEB3FDAB
:10242000C4A3B0E5CAA7B0DC00000000C7E5BFD573
:10243000D6B8CEC6BFE2CAA7B0DC0000BBBAB3E5CF
:10244000C7F8C4DAC3BBD3D0D3D0D0A7D4ADCABCED
:10245000CDBCB6F8C9FAB2BBB3C9CDBCCFF1000050
:10246000B6C1D0B420464C41534820B3F6B4ED0079
:10247000CEB4B6A8D2E5B4EDCEF30000CEDED0A740
:10248000BCC4B4E6C6F7BAC500000000BCC4B4E6DC
:10249000C6F7C9E8B6A8C4DAC8DDB4EDCEF30000CB
:1024A000BCC7CAC2B1BED2B3C2EBD6B8B6A8B4EDEF
:1024B000CEF30000D6B8CEC6BFE2C2FA00000000DC
:1024C000B5D8D6B7B4EDCEF300000000C4A3BFE981
:1024D000B7B5BBD8C8B7C8CFC2EBD3D0CEF30000D6
:1024E0008000A0F1C0400029016802D041F0010144
:1024F00001E0024A1140016070470000FEFF0F003A
:1025000010B5D0E901121143D0E903231A43114356
:102510004269114382691143C2691143026A11433E
:10252000426A1143826A1143C26A1143026B11432A
:1025300002689200A2F1C04211608168082907D1A7
:1025400001688900A1F1C0410A6842F040020A60B6
:10255000416BD1E9002342EA03128B688C891B028C
:1025600043EA04431A430B8A42EA03520B7D89690A
:1025700042EA03620A4301688900A1F1C0414A604E
:10258000C16AB1F5804F08D000686FF070418000DB
:10259000A0F1C040C0F8041110BD816BD1E9002347
:1025A00042EA03128B680C8A1B0243EA04531A4363
:1025B0000B7D896942EA036200680A438000A0F14A
:1025C000C040C0F8042110BD2DE9FC5F00254A4C35
:1025D00000954FF4806801954027C4F81080C4E945
:1025E00002750E464FF0080B1021C4E900B1A94650
:1025F000204604F08BFE1020FFF73CFC002850D151
:102600003E48BA464F460089000420603720C4E99E
:10261000010AC4E90398204604F078FE3720FFF74A
:1026200029FC00283DD1411E04F11400C0E9001B23
:10263000302181600221C0E903170121416104F0CA
:1026400007FE3320C4F808A0C4E90070C4E9037889
:10265000204604F05BFE3320FFF70CFC040020D181
:10266000274FDFF89CA04FF4001BE9464C3F40F297
:102670002A68386810EA080F0BD1584604F000FEAB
:102680000028F6D0DAF8001049F825106D1C022D4C
:10269000EFD3082004F0F4FD28B1082004F0C8FDB1
:1026A0000420BDE8FC9F022004F0EAFD20B10220D6
:1026B00004F0BEFD0220F4E7202004F0E1FD20B18B
:1026C000202004F0B5FD0620EBE74FF40075284606
:1026D00004F0D6FD20B1284604F0AAFD0720E0E76B
:1026E00040F2FF5004F0A4FD009800BA7060019819
:1026F00000BA30602046D4E7001400201800002003
:10270000802C0140F0B50023012403270D6804FA52
:1027100003F21540954242D1D0F800C05E0007FA9E
:1027200006F52CEA050CC0F800C091F804C0D0F8FA
:1027300000E00CFA06FC4CEA0E0CC0F800C091F860
:1027400004C0BCF1010F02D0BCF1020F1FD1D0F8C0
:1027500008C02CEA050CC0F808C091F805C0D0F8F4
:1027600008E00CFA06FC4CEA0E0CC0F808C0D0F8E1
:1027700004C02CEA020CC0F804C0426891F806C0FC
:102780000CFA03FC1FFA8CFC42EA0C024260C2689D
:10279000AA43C260CA79C568B2402A43C2605B1CC2
:1027A000102BB3D3F0BD4B07DB0E9A40C90810B510
:1027B00000EB8100016A0F249C40A1430162016A81
:1027C0001143016210BD0246002012690A4200D086
:1027D00001207047418370470183704730B403463E
:1027E0000C46500700D0012000EBD20010FB02F095
:1027F000C1B218785B78812809D3402B07D3FF2B0F
:1028000005D0FF2803D07F2B0CD2403B0BE00020EB
:10281000024603E0401C04F8012BC0B28842F9D301
:1028200030BC7047413B8138C0B2C0EB4015DBB2D1
:1028300005EB801003EB400048430B4B0C2A0CD0F7
:10284000102A0DD0182AEBD1D3F8192010440A46CB
:102850000146204630BC06F001BDD3F80920F5E75B
:10286000D3F81120F2E7000000C60120FEE70000C7
:1028700038B504461E480022009200891D49000414
:1028800008600D2048604020C1E902020001086193
:10289000084604F03BFD18490868009010F0450F09
:1028A000FAD0012004F0ECFC20B1012004F0C0FCBF
:1028B000012038BD042004F0E3FC20B1042004F022
:1028C000B7FC032038BD0C48243800680D2801D01F
:1028D000102038BD40F2FF5004F0AAFC0648203812
:1028E00000680090C0F343202070002038BD000035
:1028F0001800002000140020342C01407CB505464F
:10290000EF208DF8000001208DF801001448154CCF
:102910000168080E8DF80200080C8DF80300080A03
:102920008DF8040007208DF805108DF806000026AC
:102930008DF8076026800CE0012006F00BFE208851
:10294000000406D5268069460748FDF7DBFE00280F
:1029500004D16D1E2D042D0CEED100207CBD000095
:102960002C0000202A000020381800201CB501216E
:10297000112004F087FB1C20009000208DF804003B
:1029800003208DF8050001248DF8074069460648AC
:10299000FFF7B8FE02208DF807000094694603484F
:1029A000FFF7B0FE1CBD0000001002400000024016
:1029B0002DE9F0412E4D2F4F2F4C012608B12E70DE
:1029C00001E02878A0B110212046FFF7FCFEB0B14D
:1029D00008212046FFF7F7FE88B104212046FFF7C3
:1029E000F2FE60B101213846FFF7EDFE012806D066
:1029F00010212046FFF7E7FE012824D035E00A2009
:102A000006F0A8FD0020287010212046FFF7DBFE0D
:102A100080B108212046FFF7D6FE70B10421204680
:102A2000FFF7D1FE58B101213846FFF7CCFE01284F
:102A300007D01AE00120BDE8F0810220FBE7032067
:102A4000F9E70420F7E708212046FFF7BCFE01283C
:102A50000BD104212046FFF7B6FE012805D1012144
:102A60003846FFF7B0FE00B92E700020E3E7000003
:102A70002800002000000240001002402DE9F04331
:102A8000174C81460025208866884643A088A0F51B
:102A9000D041043902D1A079012808D0002108468C
:102AA00003F066FE03F0FAFF4FF0D84013E0002079
:102AB000A0712A2767814FF02B08A4F80C800146EB
:102AC00003F056FE0120A071A4F80A80A781E9E76F
:102AD000A0F880906D1CB542FAD3BDE8F0830000E9
:102AE000D80300202DE9F04F4A492A242B25898854
:102AF00045F2105A4FF4305B4FF4285E4FF448769D
:102B00004FF0F00C49F241394FF4A07345F2103701
:102B10004FF4F07280B13F484FF00108494580F80A
:102B200006800380A0F802C001D0B9423ED12C2615
:102B300006814481858157E036484FF000084945B9
:102B400080F80680A0F800C0438006D0A1F5D04CE4
:102B5000BCF1040C01D0B9420CD12C260681448171
:102B6000A1F5D0448581043C01D0B94244D1038011
:102B7000428041E0514507D1A0F808B0A0F80AE032
:102B80004FF42C5181810EE0A1F5C853633B06D070
:102B90002221018120214181212181812CE02C21D0
:102BA0000181458184810280468025E0A1F5D04CD9
:102BB000BCF1040C09D051450BD1A0F808B0A0F825
:102BC0000AE04FF42C54848121E02C2606814581B3
:102BD00009E0A1F5C85CBCF1630C12D02224048189
:102BE0002124448120248481A1F5D044043C01D0D7
:102BF000B94201D102804380BDE8F04F002003F0CC
:102C0000B5BC4FF02C0CA0F808C04481858106802B
:102C10004280E9E7D80300202DE9F043444C914677
:102C20000246A08823460D464FEA1128160A5B8902
:102C3000A0F51341413917D0A0F5A641103913D0A2
:102C4000A0F5AA41103914D02646A0F5C857B1798D
:102C50003688B61A761E633F25D0A0F5D047043FCC
:102C60003DD0012951D051E0184603F00AFF30460B
:102C70003CE0184603F005FF304603F0F6FE60899D
:102C8000401C80B203F0FDFED0B203F0EEFEA0893E
:102C900003F0F7FE404603F0E8FEA089401C80B236
:102CA00003F0EFFE2DE001B9B2B2184603F0E9FEE1
:102CB000160A304603F0D9FED0B203F0D6FE3046F5
:102CC00003F0D3FED0B203F0D0FEA08903F0D9FE0A
:102CD000404603F0CAFEE8B203F0C7FE0EE0012949
:102CE00000D1B2B2184603F0CCFE100A03F0BDFECC
:102CF000D0B203F0BAFEA08903F0C3FE404603F051
:102D0000B4FEE8B203F0B1FE08E0B2B211461846D4
:102D100003F0CEFEA089294603F0CAFE4FF0D8404A
:102D2000218920F87E1FA0F80290BDE8F083000002
:102D3000D80300202DE9F843204C1E468046A38886
:102D4000089FA3F5D040043802D1A079012807D00C
:102D5000A2EB0800401C84B20D464FF0D84929E090
:102D600025880846A91AA5EB08030025A571324657
:102D70002A2565812B26491E5B1EA68189B29BB23E
:102D80000097FFF7D7FF0120A0716681A581BDE8FC
:102D9000F8832946404603F0EBFC03F07FFE002059
:102DA000494603E0A1F88070401C80B2A042F9D3EC
:102DB0006D1CADB2B542ECD9E9E70000D8030020A4
:102DC0002DE9F04FA1B0002401217A20119404F0E4
:102DD00059F90121084604F061F94FF400400090D0
:102DE00001208DF804008DF8064002208DF80500C2
:102DF00001208DF807006946FE48FFF783FC4CF27E
:102E00003370009002208DF804008DF806400320F6
:102E10008DF8050001208DF807006946F648FFF798
:102E200071FC4FF68070009002208DF804008DF840
:102E3000064003208DF805000120F04D8DF80700B5
:102E400069462846FFF75EFCA814009002208DF822
:102E500004008DF8064003208DF805000120E84E9F
:102E60008DF8070069463046FFF74CFCA814009027
:102E700002208DF804008DF8064003208DF805002F
:102E80000120E04F8DF8070069463846FFF73AFC0D
:102E90000C220021D848FFF786FC0C220121D648DD
:102EA000FFF781FC0C220421D348FFF77CFC0C22A5
:102EB0000521D148FFF777FC0C220821CE48FFF707
:102EC00072FC0C220921CC48FFF76DFC0C220A2170
:102ED000C948FFF768FC0C220E21C748FFF763FCC6
:102EE0000C220F21C448FFF75EFC0C220721284664
:102EF000FFF759FC0C2208212846FFF754FC0C224E
:102F000009212846FFF74FFC0C220A212846FFF72B
:102F10004AFC0C220B212846FFF745FC0C221146E7
:102F20002846FFF740FC0C220D212846FFF73BFC0A
:102F30000C220E212846FFF736FC0C220F212846D2
:102F4000FFF731FC0C2211463046FFF72CFC0C2217
:102F500011463846FFF727FC0F20CDE91A043C2024
:102F6000CDE91C041E941F9409202094CDE913047C
:102F70000820CDE9150417940620CDE90204189421
:102F800019941020CDE9044006940002CDE90A40CE
:102F9000089407948000CDE90C4009941AA8CDE963
:102FA0000E4013A8109002A8FFF7AAFA01210620EC
:102FB000FFF796FA322006F0CDFA0121002003F047
:102FC00077FD322006F0C6FA002003F09DFA8E4A03
:102FD0004FF0204A4FF6FF7B908049F2413545F291
:102FE000103645F2105441F6631846F60407FF28E0
:102FF00004D3584502D0B0F5134F74D1D32003F059
:1030000040FD03F077FA908003F074FA908003F0AB
:1030100071FA0BEA0020D946908003F06BFA918890
:1030200008439080A8425ED0BF2003F02AFD03F041
:1030300061FA908003F05EFA908003F05BFA908072
:1030400003F058FA09EA0020908003F053FA9188BF
:1030500008439080B84246D0D42003F012FD03F01C
:1030600049FA908003F046FA908003F043FA09EAA7
:103070000020908003F03EFA918808439080B0428F
:1030800031D04FF45A4003F0FCFC03F033FA908047
:103090004FF45B4003F0F5FC03F02CFA09EA002042
:1030A00090804FF45C4003F0ECFC03F023FA91882D
:1030B00008439080B0F5004F39D0A04213D0A12032
:1030C00003F0DFFC03F016FA908003F013FA09EA2C
:1030D0000020908003F00EFA91880843A0F5AE41DD
:1030E0009080613920D080B2A84205D0B04203D090
:1030F000A04201D040451CD1DAF81C11504621F005
:103100000F01CAF81C11DAF81C1121F47061CAF819
:103110001C11DAF81C1141F00301CAF81C11DAF88D
:103120001C1141F4007121E0A2F80480E4E79480CE
:10313000E2E7B84203D0A0F54541053918D1DAF8E5
:103140001C11504621F00F01CAF81C11DAF81C11AD
:1031500021F47061CAF81C11DAF81C1141F00A015F
:10316000CAF81C11DAF81C1141F44061C0F81C11B6
:103170009146918825A0FDF709F9B9F80400A84205
:103180007DD1CF2003F07DFC002003F06EFCC12038
:1031900003F06BFC302003F068FCED2003F071FCC1
:1031A000642003F062FC032003F05FFC122003F0B4
:1031B0005CFC812003F059FCE82003F062FC8520D0
:1031C00003F053FC102003F050FC7A2003F04DFC78
:1031D000CB2003F056FC392003F047FC2C2003F0F1
:1031E00044FC002003F041FC342003F03EFC0220AC
:1031F00014E0000000040240000C024000100240F5
:103200000014024000180240D8030020204C434420
:103210002049443A25780D0A0000000003F025FCFF
:10322000F72003F02EFC202003F01FFCEA2003F01F
:1032300028FC002003F019FC002003F016FCC0203D
:1032400003F01FFC1B2003F010FCC12003F019FC4D
:10325000012003F00AFCC52003F013FC302003F02A
:1032600004FC302003F001FCC72003F00AFCB72067
:1032700003F0FBFB362003F004FC482000E0A7E04D
:1032800003F0F3FB3A2003F0FCFB552003F0EDFBC9
:10329000B12003F0F6FB002003F0E7FB1A2003F057
:1032A000E4FBB62003F0EDFB0A2003F0DEFBA220D6
:1032B00003F0DBFBF22003F0E4FB002003F0D5FB7E
:1032C000262003F0DEFB012003F0CFFBE02003F01B
:1032D000D8FB0F2003F0C9FB2A2003F0C6FB2820EF
:1032E00003F0C3FB082003F0C0FB0E2003F0BDFB7E
:1032F000082003F0BAFB542003F0B7FBA92003F029
:10330000B4FB432003F0B1FB0A2003F0AEFB0F2017
:1033100003F0ABFB002003F0A8FB002003F0A5FBAB
:10332000002003F0A2FB002003F09FFBE12003F04C
:10333000A8FB002003F099FB152003F096FB172053
:1033400003F093FB072003F090FB112003F08DFBAB
:10335000062003F08AFB2B2003F087FB562003F0A6
:1033600084FB3C2003F081FB052003F07EFB102052
:1033700003F07BFB0F2003F078FB3F2003F075FB8D
:103380003F2003F072FB0F2003F06FFB2B2003F0B4
:1033900078FB002003F069FB002003F066FB0120AE
:1033A00003F063FB3F2003F060FB2A2003F069FB7E
:1033B000002003F05AFB002003F057FB002003F02D
:1033C00054FBEF2003F051FB112003F05AFBA5E062
:1033D000B8427CD1112003F054FB142006F0BAF857
:1033E000D02003F04EFB072003F03FFB422003F008
:1033F0003CFB1D2003F039FBD12003F042FB0020F1
:1034000003F033FB1A2003F030FB092003F02DFBFF
:10341000D22003F036FB012003F027FB222003F02B
:1034200024FBC02003F02DFB102003F01EFB3B20EB
:1034300003F01BFB002003F018FB022003F015FB38
:10344000112003F012FBC52003F01BFB032003F047
:103450000CFBC82003F015FB002003F006FB252021
:1034600003F003FB212003F000FB052003F0FDFA2D
:10347000002003F0FAFA0A2003F0F7FA652003F0BF
:10348000F4FA252003F0F1FA772003F0EEFA502049
:1034900003F0EBFA0F2003F0E8FA002003F0E5FA5E
:1034A000F82003F0EEFA012003F0DFFAFE2003F02B
:1034B000E8FA002003F0D9FA022003F0D6FA20201F
:1034C00003F0DFFA362003F0DCFA082000E02BE0FE
:1034D00003F0CBFA3A2003F0D4FA552003F0C5FAF2
:1034E0002B2003F0CEFA002003F0BFFA002003F0F7
:1034F000BCFA012003F0B9FA3F2003F0B6FA2A2003
:1035000003F0BFFA002003F0B0FA002003F0ADFA98
:10351000012003F0AAFADF2003F0A7FA782006F0D2
:1035200019F8292001F0FBBEB0427CD1ED2003F058
:10353000A8FA012003F099FAFE2003F096FAEE2093
:1035400003F09FFADE2003F090FA212003F08DFAB9
:10355000F12003F096FA012003F087FADF2003F050
:1035600090FA102003F081FAC42003F08AFA8F2029
:1035700003F07BFAC62003F084FA002003F075FA0A
:10358000E22003F072FAE22003F06FFAE22003F087
:103590006CFABF2003F075FAAA2003F066FAB02097
:1035A00003F06FFA0D2003F060FA002003F05DFADB
:1035B0000D2003F05AFA002003F057FA112003F00F
:1035C00054FA002003F051FA192003F04EFA0020BB
:1035D00003F04BFA212003F048FA002003F045FAEB
:1035E0002D2003F042FA002003F03FFA3D2003F0C3
:1035F0003CFA002003F039FA5D2003F036FA00208F
:1036000003F033FA5D2003F030FA002003F02DFAC6
:10361000B12003F036FA802003F027FA002003F0EF
:1036200024FA8B2000E0FCE303F01FFA002003F0F3
:103630001CFA962003F019FA002003F016FAB220C3
:1036400003F01FFA002003F010FA002003F00DFA37
:10365000022003F00AFA002003F007FA032003F027
:1036600004FA002003F001FAB32003F00AFA002064
:1036700003F0FBF9002003F0F8F9002003F0F5F95E
:10368000002003F0F2F9002003F0EFF9002003F02E
:10369000ECF9002003F0E9F9002003F0E6F900203E
:1036A00003F0E3F9002003F0E0F9002003F0DDF976
:1036B000002003F0DAF9002003F0D7F9002003F02E
:1036C000D4F9002003F0D1F9002003F0CEF9002056
:1036D00003F0CBF9002003F0C8F9002003F0C5F98E
:1036E000002003F0C2F9002003F0BFF9002003F02E
:1036F000BCF9002003F0B9F9002003F0B6F9B420BA
:1037000003F0BFF98B2003F0B0F9002003F0ADF90E
:10371000962003F0AAF9002003F0A7F9A12003F0F6
:10372000A4F9002003F0A1F9B52003F0AAF90220C2
:1037300003F09BF9002003F098F9032003F095F9BA
:10374000002003F092F9042003F08FF9002003F029
:103750008CF9B62003F095F9002003F086F90020DB
:1037600003F083F9B72003F08CF9002003F07DF912
:10377000002003F07AF93F2003F077F9002003F0EE
:1037800074F95E2003F071F9002003F06EF96420F3
:1037900003F06BF9002003F068F98C2003F065F961
:1037A000002003F062F9AC2003F05FF9002003F081
:1037B0005CF9DC2003F059F9002003F056F9702081
:1037C00003F053F9002003F050F9902003F04DF975
:1037D000002003F04AF9EB2003F047F9002003F042
:1037E00044F9DC2003F041F9002003F03EF9B82051
:1037F00003F047F9002003F038F9002003F035F911
:10380000002003F032F9002003F02FF9002003F02C
:103810002CF9002003F029F9002003F026F90020FC
:1038200003F023F9BA2003F02CF9242003F01DF94A
:10383000002003F01AF9002003F017F9002003F02C
:1038400014F9C12003F01DF9202003F00EF9002027
:1038500003F00BF9542003F008F9002003F005F9F8
:10386000FF2003F002F9002003F0FFF8C22003F06C
:1038700008F90A2003F0F9F8002003F0F6F8042014
:1038800003F0F3F8002003F0F0F8C32003F0F9F898
:103890003C2003F0EAF8002003F0E7F83A2003F0B8
:1038A000E4F8002003F0E1F8392003F0DEF800200E
:1038B00003F0DBF8372003F0D8F8002003F0D5F848
:1038C0003C2003F0D2F8002003F0CFF8362003F0BC
:1038D000CCF8002003F0C9F8322003F0C6F800202D
:1038E00003F0C3F82F2003F0C0F8002003F0BDF868
:1038F0002C2003F0BAF8002003F0B7F8292003F0D9
:10390000B4F8002003F0B1F8262003F0AEF8002050
:1039100003F0ABF8242003F0A8F8002003F0A5F88A
:10392000242003F0A2F8002003F09FF8232003F0E6
:103930009CF8002003F099F83C2003F096F8002052
:1039400003F093F8362003F090F8002003F08DF890
:10395000322003F08AF8002003F087F82F2003F0CC
:1039600084F8002003F081F82C2003F07EF800207A
:1039700003F07BF8292003F078F8002003F075F8B5
:10398000262003F072F8002003F06FF8242003F0E3
:103990006CF8002003F069F8242003F066F800209A
:1039A00003F063F8232003F060F8002003F05DF8D3
:1039B000C42003F066F8622003F057F8002003F0FB
:1039C00054F8052003F051F8002003F04EF884204D
:1039D00003F04BF8002003F048F8F02003F045F81E
:1039E000002003F042F8182003F03FF8002003F015
:1039F0003CF8A42003F039F8002003F036F8182032
:103A000003F033F8002003F030F8502003F02DF8D5
:103A1000002003F02AF80C2003F027F8002003F020
:103A200024F8172003F021F8002003F01EF8952059
:103A300003F01BF8002003F018F8F32003F015F84A
:103A4000002003F012F8E62003F00FF8002003F046
:103A50000CF8C52003F015F8322003F006F800201A
:103A600003F003F8442003F000F8002002F0FDFF0B
:103A7000652002F0FAFF002002F0F7FF762002F046
:103A8000F4FF002002F0F1FF882002F0EEFF00209A
:103A900002F0EBFFC62002F0F4FF202002F0E5FF69
:103AA000002002F0E2FF172002F0DFFF002002F00A
:103AB000DCFF012002F0D9FF002002F0D6FFC72072
:103AC00002F0DFFF002002F0D0FF002002F0CDFF67
:103AD000002002F0CAFF002002F0C7FFC82002F059
:103AE000D0FF002002F0C1FF002002F0BEFF002046
:103AF00002F0BBFF002002F0B8FFC92002F0C1FFB6
:103B0000002002F0B2FF002002F0AFFF002002F020
:103B1000ACFF002002F0A9FF002002F0A6FF002069
:103B200002F0A3FF002002F0A0FF002002F09DFFA2
:103B3000002002F09AFF002002F097FF002002F020
:103B400094FF002002F091FF002002F08EFF002081
:103B500002F08BFF002002F088FF002002F085FFBA
:103B6000E02002F08EFF162002F07FFF002002F01E
:103B70007CFF1C2002F079FF002002F076FF21205C
:103B800002F073FF002002F070FF362002F06DFF9C
:103B9000002002F06AFF462002F067FF002002F0DA
:103BA00064FF522002F061FF002002F05EFF6420FB
:103BB00002F05BFF002002F058FF7A2002F055FF70
:103BC000002002F052FF8B2002F04FFF002002F095
:103BD0004CFF992002F049FF002002F046FFA82088
:103BE00002F043FF002002F040FFB92002F03DFF49
:103BF000002002F03AFFC42002F037FF002002F05C
:103C000034FFCA2002F031FF002002F02EFFD22044
:103C100002F02BFF002002F028FFD92002F025FF40
:103C2000002002F022FFE02002F01FFF002002F03F
:103C30001CFFF32002F019FF002002F016FFE12024
:103C400002F01FFF162002F010FF002002F00DFF0F
:103C50001C2002F00AFF002002F007FF222002F0E1
:103C600004FF002002F001FF362002F0FEFE0020DB
:103C700002F0FBFE452002F0F8FE002002F0F5FE07
:103C8000522002F0F2FE002002F0EFFE642002F06B
:103C9000ECFE002002F0E9FE7A2002F0E6FE0020B1
:103CA00002F0E3FE8B2002F0E0FE002002F0DDFED9
:103CB000992002F0DAFE002002F0D7FEA82002F0E0
:103CC000D4FE002002F0D1FEB92002F0CEFE00208A
:103CD00002F0CBFEC42002F0C8FE002002F0C5FEB8
:103CE000CA2002F0C2FE002002F0BFFED22002F085
:103CF000BCFE002002F0B9FED82002F0B6FE002083
:103D000002F0B3FEE02002F0B0FE002002F0ADFEB3
:103D1000F32002F0AAFE002002F0A7FEE22002F04B
:103D2000B0FE052002F0A1FE002002F09EFE0B2056
:103D300002F09BFE002002F098FE1B2002F095FE90
:103D4000002002F092FE342002F08FFE002002F0EC
:103D50008CFE442002F089FE002002F086FE4F20F7
:103D600002F083FE002002F080FE612002F07DFE62
:103D7000002002F07AFE792002F077FE002002F0A7
:103D800074FE882002F071FE002002F06EFE972083
:103D900002F06BFE002002F068FEA62002F065FE35
:103DA000002002F062FEB72002F05FFE002002F069
:103DB0005CFEC22002F059FE002002F056FEC72031
:103DC00002F053FE002002F050FED12002F04DFE22
:103DD000002002F04AFED62002F047FE002002F04A
:103DE00044FEDD2002F041FE002002F03EFEF32002
:103DF00002F03BFE002002F038FEE32002F041FE1C
:103E0000052002F032FE002002F02FFE0A2002F010
:103E10002CFE002002F029FE1C2002F026FE0020CD
:103E200000E0FDE202F021FE332002F01EFE002041
:103E300002F01BFE442002F018FE002002F015FEE6
:103E4000502002F012FE002002F00FFE622002F06D
:103E50000CFE002002F009FE782002F006FE002091
:103E600002F003FE882002F000FE002002F0FDFDBB
:103E7000972002F0FAFD002002F0F7FDA62002F0E4
:103E8000F4FD002002F0F1FDB72002F0EEFD00206D
:103E900002F0EBFDC22002F0E8FD002002F0E5FD9B
:103EA000C72002F0E2FD002002F0DFFDD12002F089
:103EB000DCFD002002F0D9FDD52002F0D6FD002067
:103EC00002F0D3FDDD2002F0D0FD002002F0CDFD98
:103ED000F32002F0CAFD002002F0C7FDE42002F04A
:103EE000D0FD012002F0C1FD002002F0BEFD012046
:103EF00002F0BBFD002002F0B8FD022002F0B5FD8B
:103F0000002002F0B2FD2A2002F0AFFD002002F0F6
:103F1000ACFD3C2002F0A9FD002002F0A6FD4B20E4
:103F200002F0A3FD002002F0A0FD5D2002F09DFD47
:103F3000002002F09AFD742002F097FD002002F0AC
:103F400094FD842002F091FD002002F08EFD93206C
:103F500002F08BFD002002F088FDA22002F085FD1A
:103F6000002002F082FDB32002F07FFD002002F06D
:103F70007CFDBE2002F079FD002002F076FDC42019
:103F800002F073FD002002F070FDCD2002F06DFD07
:103F9000002002F06AFDD32002F067FD002002F04D
:103FA00064FDDD2002F061FD002002F05EFDF320E3
:103FB00002F05BFD002002F058FDE52002F061FDFB
:103FC000002002F052FD002002F04FFD002002F020
:103FD0004CFD002002F049FD022002F046FD0020C9
:103FE00002F043FD292002F040FD002002F03DFDDB
:103FF0003C2002F03AFD002002F037FD4B2002F099
:1040000034FD002002F031FD5D2002F02EFD002085
:1040100002F02BFD742002F028FD002002F025FDA7
:10402000842002F022FD002002F01FFD932002F008
:104030001CFD002002F019FDA22002F016FD002058
:1040400002F013FDB32002F010FD002002F00DFD80
:10405000BE2002F00AFD002002F007FDC42002F09D
:1040600004FD002002F001FDCD2002F0FEFC002046
:1040700002F0FBFCD32002F0F8FC002002F0F5FC7B
:10408000DC2002F0F2FC002002F0EFFCF32002F052
:10409000ECFC002002F0E9FCE62002F0F2FC11202A
:1040A00002F0E3FC002002F0E0FC342002F0DDFC32
:1040B000002002F0DAFC562002F0D7FC002002F0CB
:1040C000D4FC762002F0D1FC002002F0CEFC772058
:1040D00002F0CBFC002002F0C8FC662002F0C5FC18
:1040E000002002F0C2FC882002F0BFFC002002F099
:1040F000BCFC992002F0B9FC002002F0B6FCBB2009
:1041000002F0B3FC002002F0B0FC992002F0ADFCFC
:10411000002002F0AAFC662002F0A7FC002002F0BA
:10412000A4FC552002F0A1FC002002F09EFC5520CA
:1041300002F09BFC002002F098FC452002F095FC68
:10414000002002F092FC432002F08FFC002002F0DD
:104150008CFC442002F089FC002002F086FCE72061
:1041600002F08FFC322002F080FC002002F07DFC87
:10417000552002F07AFC002002F077FC762002F055
:1041800074FC002002F071FC662002F06EFC00203E
:1041900002F06BFC672002F068FC002002F065FC76
:1041A000672002F062FC002002F05FFC872002F032
:1041B0005CFC002002F059FC992002F056FC002023
:1041C00002F053FCBB2002F050FC002002F04DFC3A
:1041D000992002F04AFC002002F047FC772002F010
:1041E00044FC002002F041FC442002F03EFC002090
:1041F00002F03BFC562002F038FC002002F035FCB7
:10420000232002F032FC002002F02FFC332002F0C9
:104210002CFC002002F029FC452002F026FC0020A6
:1042200002F023FCE82002F02CFC002002F01DFC30
:10423000002002F01AFC992002F017FC002002F086
:1042400014FC872002F011FC002002F00EFC8820F4
:1042500002F00BFC002002F008FC772002F005FCC5
:10426000002002F002FC662002F0FFFB002002F0BA
:10427000FCFB882002F0F9FB002002F0F6FBAA20EC
:1042800002F0F3FB002002F0F0FBBB2002F0EDFB9C
:10429000002002F0EAFB992002F0E7FB002002F088
:1042A000E4FB662002F0E1FB002002F0DEFB55207B
:1042B00002F0DBFB002002F0D8FB552002F0D5FB1A
:1042C000002002F0D2FB442002F0CFFB002002F0DD
:1042D000CCFB442002F0C9FB002002F0C6FB5520B5
:1042E00002F0C3FB002002F0C0FBE92002F0C9FB92
:1042F000AA2002F0BAFB002002F0B7FB002002F077
:10430000B4FB002002F0B1FB002002F0BAFBAA20AF
:1043100002F0ABFBCF2002F0B4FB002002F0A5FBC3
:10432000002002F0A2FB002002F09FFB002002F020
:104330009CFB002002F099FB002002F096FB00207D
:1043400002F093FB002002F090FB002002F08DFBB6
:10435000002002F08AFB002002F087FB002002F020
:1043600084FB002002F081FB002002F07EFB002095
:1043700002F07BFB002002F078FB002002F075FBCE
:10438000F02002F07EFB002002F06FFB502002F0D4
:104390006CFB002002F069FB002002F066FB0020AD
:1043A00002F063FBF32002F06CFB002002F05DFBE7
:1043B000F92002F066FB062002F057FB102002F005
:1043C00054FB292002F051FB002002F04EFB3A2062
:1043D00002F057FB552002F048FB112002F051FB80
:1043E000642005F0B7F8292002F04BFB352002F0DD
:1043F00048FB002002F039FB512002F042FBFF2075
:1044000002F033FB532002F03CFB2C2002F02DFB8A
:10441000552002F036FB822002F027FB2C20FCE323
:10442000A0427DD14FF470435521184602F040FB65
:104430004FF20104AA21204602F03AFB651C5221EA
:10444000284602F035FBA61C0821304602F030FB5E
:10445000E71C0121384602F02BFB0D214FF43040C0
:1044600002F026FB0D214BF2010002F021FB0D2191
:104470004BF2020002F01CFB4FF436483421404658
:1044800002F016FB34214BF2016002F011FB3421E3
:104490004BF2026002F00CFB4FF431490D2148460B
:1044A00002F006FB4BF2011A0D21504602F000FB10
:1044B0000D214BF2021002F0FBFA34214FF4374089
:1044C00002F0F6FA34214BF2017002F0F1FA3421D5
:1044D0004BF2027002F0ECFA00214FF4324002F08D
:1044E000E7FA00214BF2012002F0E2FA00214BF240
:1044F000022002F0DDFA24214FF4384002F0D8FA0D
:1045000024214BF6010002F0D3FA24214BF60200DD
:1045100002F0CEFA01214FF43F4002F0C9FA00E068
:10452000FEE30F214FF4334002F0C2FA0F214BF2A9
:10453000013002F0BDFA0F214BF2023002F0B8FA5E
:1045400034214FF4394002F0B3FA34214BF6011014
:1045500002F0AEFA34214BF6021002F0A9FA08215B
:104560004FF4354002F0A4FA08214BF2015002F05A
:104570009FFA08214BF2025002F09AFA03214FF4FD
:10458000424002F095FA24214FF43A4002F090FAAA
:1045900024214BF6012002F08BFA24214BF6022055
:1045A00002F086FA00214FF43C4002F081FA7821B3
:1045B0004BF6014002F07CFA00214BF6024002F07B
:1045C00077FA00214FF43D4002F072FA78214BF661
:1045D000015002F06DFA00214BF6025002F068FA29
:1045E00000214FF43E4002F063FA64214BF6016073
:1045F00002F05EFA00214FF4514002F059FA3321E3
:104600004DF2011002F054FA00214DF2021002F0B6
:104610004FFA34214DF2031002F04AFA00214DF214
:10462000041002F045FA3A214DF2051002F040FA6A
:1046300000214DF2061002F03BFA4A214DF207101C
:1046400002F036FA00214DF2081002F031FA5C2136
:104650004DF2091002F02CFA00214DF20A1002F07E
:1046600027FA81214DF20B1002F022FA00214DF2BF
:104670000C1002F01DFAA6214DF20D1002F018FAEE
:1046800000214DF20E1002F013FAE5214DF20F1049
:1046900002F00EFA01214DF2101002F009FA132176
:1046A0004DF2111002F004FA01214DF2121002F045
:1046B000FFF954214DF2131002F0FAF901214DF2E5
:1046C000141002F0F5F982214DF2151002F0F0F904
:1046D00001214DF2161002F0EBF9CA214DF217102C
:1046E00002F0E6F902214DF2181002F0E1F9002182
:1046F0004DF2191002F0DCF902214DF21A1002F00D
:10470000D7F901214DF21B1002F0D2F902214DF22E
:104710001C1002F0CDF934214DF21D1002F0C8F941
:1047200002214DF21E1002F0C3F967214DF21F1055
:1047300002F0BEF902214DF2201002F0B9F98421F5
:104740004DF2211002F0B4F902214DF2221002F0D4
:10475000AFF9A4214DF2231002F0AAF902214DF283
:10476000241002F0A5F9B7214DF2251002F0A0F9AE
:1047700002214DF2261002F09BF9CF214DF22710B5
:1047800002F096F902214DF2281002F091F9DE2193
:104790004DF2291002F08CF902214DF22A1002F09C
:1047A00087F9F2214DF22B1002F082F902214DF22D
:1047B0002C1002F07DF9FE214DF22D1002F078F957
:1047C00003214DF22E1002F073F910214DF22F103B
:1047D00002F06EF903214DF2301002F069F9332135
:1047E0004DF2311002F064F903214DF2321002F063
:1047F0005FF96D214DF2331002F05AF900214FF4A8
:10480000524002F055F933214DF2012002F050F9E7
:1048100000214DF2022002F04BF934214DF2032029
:1048200002F046F900214DF2042002F041F93A214C
:104830004DF2052002F03CF900214DF2062002F075
:1048400037F94A214DF2072002F032F900214DF2EA
:10485000082002F02DF95C214DF2092002F028F920
:1048600000214DF20A2002F023F981214DF20B20A4
:1048700002F01EF900214DF20C2002F019F9A621D8
:104880004DF20D2002F014F900214DF20E2002F03D
:104890000FF9E5214DF20F2002F00AF901214DF246
:1048A000102002F005F913214DF2112002F000F959
:1048B00001214DF2122002F0FBF854214DF2132099
:1048C00002F0F6F801214DF2142002F0F1F88221F5
:1048D0004DF2152002F0ECF801214DF2162002F005
:1048E000E7F8CA214DF2172002F0E2F802214DF25A
:1048F000182002F0DDF800214DF2192002F0D8F85E
:1049000002214DF21A2002F0D3F801214DF21B20B2
:1049100002F0CEF802214DF21C2002F0C9F8342139
:104920004DF21D2002F0C4F802214DF21E2002F0CB
:10493000BFF867214DF21F2002F0BAF802214DF2B4
:10494000202002F0B5F884214DF2212002F0B0F8C9
:1049500002214DF2222002F0ABF8A4214DF22320D7
:1049600002F0A6F802214DF2242002F0A1F8B721AE
:104970004DF2252002F09CF802214DF2262002F093
:1049800097F8CF214DF2272002F092F802214DF244
:10499000282002F08DF8DE214DF2292002F088F85F
:1049A00002214DF22A2002F083F8F2214DF22B2051
:1049B00002F07EF802214DF22C2002F079F8FE215F
:1049C0004DF22D2002F074F803214DF22E2002F05A
:1049D0006FF810214DF22F2002F06AF803214DF2FA
:1049E000302002F065F833214DF2312002F060F8FA
:1049F00003214DF2322002F05BF86D214DF233209D
:104A000002F056F800214FF4534002F051F83321E0
:104A10004DF2013002F04CF800214DF2023002F06C
:104A200047F834214DF2033002F042F800214DF2F4
:104A3000043002F03DF83A214DF2053002F038F82A
:104A400000214DF2063002F033F84A214DF20730D2
:104A500002F02EF800214DF2083002F029F85C2116
:104A60004DF2093002F024F800214DF20A3002F034
:104A70001FF881214DF20B3002F01AF800214DF29F
:104A80000C3002F015F8A6214DF20D3002F010F8AE
:104A900000214DF20E3002F00BF8E5214DF20F30FF
:104AA00002F006F801214DF2103002F001F8132156
:104AB0004DF2113001F0FCFF01214DF2123001F0F6
:104AC000F7FF54214DF2133001F0F2FF01214DF2B6
:104AD000143001F0EDFF82214DF2153001F0E8FFB6
:104AE00001214DF2163001F0E3FFCA214DF21730DB
:104AF00001F0DEFF02214DF2183001F0D9FF002154
:104B00004DF2193001F0D4FF02214DF21A3001F0BC
:104B1000CFFF01214DF21B3001F0CAFF02214DF2FF
:104B20001C3001F0C5FF34214DF21D3001F0C0FFF3
:104B300002214DF21E3001F0BBFF67214DF21F3004
:104B400001F0B6FF02214DF2203001F0B1FF8421C7
:104B50004DF2213001F0ACFF02214DF2223001F084
:104B6000A7FFA4214DF2233001F0A2FF02214DF254
:104B7000243001F09DFFB7214DF2253001F098FF60
:104B800002214DF2263001F093FFCF214DF2273064
:104B900001F08EFF02214DF2283001F089FFDE2165
:104BA0004DF2293001F084FF02214DF22A3001F04C
:104BB0007FFFF2214DF22B3001F07AFF02214DF2FE
:104BC0002C3001F075FFFE214DF22D3001F070FF09
:104BD00003214DF22E3001F06BFF10214DF22F30EA
:104BE00001F066FF03214DF2303001F061FF332107
:104BF0004DF2313001F05CFF03214DF2323001F013
:104C000057FF6D214DF2333001F052FF00214FF478
:104C1000544001F04DFF332100E080E34DF20140AC
:104C200001F046FF00214DF2024001F041FF342126
:104C30004DF2034001F03CFF00214DF2044001F031
:104C400037FF3A214DF2054001F032FF00214DF2CD
:104C5000064001F02DFF4A214DF2074001F028FFE8
:104C600000214DF2084001F023FF5C214DF2094084
:104C700001F01EFF00214DF20A4001F019FF8121D1
:104C80004DF20B4001F014FF00214DF20C4001F0F9
:104C90000FFFA6214DF20D4001F00AFF00214DF259
:104CA0000E4001F005FFE5214DF20F4001F000FF3D
:104CB00001214DF2104001F0FBFE13214DF2114095
:104CC00001F0F6FE01214DF2124001F0F1FE5421F7
:104CD0004DF2134001F0ECFE01214DF2144001F0C1
:104CE000E7FE82214DF2154001F0E2FE01214DF276
:104CF000164001F0DDFECA214DF2174001F0D8FE4A
:104D000002214DF2184001F0D3FE00214DF219406E
:104D100001F0CEFE02214DF21A4001F0C9FE00E082
:104D200000E301214DF21B4001F0C2FE02214DF2D1
:104D30001C4001F0BDFE34214DF21D4001F0B8FED3
:104D400002214DF21E4001F0B3FE67214DF21F40DB
:104D500001F0AEFE02214DF2204001F0A9FE8421B7
:104D60004DF2214001F0A4FE02214DF2224001F05B
:104D70009FFEA4214DF2234001F09AFE02214DF244
:104D8000244001F095FEB7214DF2254001F090FE40
:104D900002214DF2264001F08BFECF214DF227403B
:104DA00001F086FE02214DF2284001F081FEDE2155
:104DB0004DF2294001F07CFE02214DF22A4001F023
:104DC00077FEF2214DF22B4001F072FE02214DF2EE
:104DD0002C4001F06DFEFE214DF22D4001F068FEE9
:104DE00003214DF22E4001F063FE10214DF22F40C1
:104DF00001F05EFE03214DF2304001F059FE3321F7
:104E00004DF2314001F054FE03214DF2324001F0E9
:104E10004FFE6D214DF2334001F04AFE00214FF468
:104E2000554001F045FE33214DF2015001F040FEA6
:104E300000214DF2025001F03BFE34214DF20350AF
:104E400001F036FE00214DF2045001F031FE3A210E
:104E50004DF2055001F02CFE00214DF2065001F0FC
:104E600027FE4A214DF2075001F022FE00214DF2AB
:104E7000085001F01DFE5C214DF2095001F018FEB2
:104E800000214DF20A5001F013FE81214DF20B502A
:104E900001F00EFE00214DF20C5001F009FEA6219A
:104EA0004DF20D5001F004FE00214DF20E5001F0C4
:104EB000FFFDE5214DF20F5001F0FAFD01214DF209
:104EC000105001F0F5FD13214DF2115001F0F0FDED
:104ED00001214DF2125001F0EBFD54214DF213501F
:104EE00001F0E6FD01214DF2145001F0E1FD8221B7
:104EF0004DF2155001F0DCFD01214DF2165001F08C
:104F0000D7FDCA214DF2175001F0D2FD02214DF21A
:104F1000185001F0CDFD00214DF2195001F0C8FDEF
:104F200002214DF21A5001F0C3FD01214DF21B5038
:104F300001F0BEFD02214DF21C5001F0B9FD3421FB
:104F40004DF21D5001F0B4FD02214DF21E5001F052
:104F5000AFFD67214DF21F5001F0AAFD02214DF275
:104F6000205001F0A5FD84214DF2215001F0A0FD5B
:104F700002214DF2225001F09BFDA4214DF223505D
:104F800001F096FD02214DF2245001F091FDB72170
:104F90004DF2255001F08CFD02214DF2265001F01A
:104FA00087FDCF214DF2275001F082FD02214DF205
:104FB000285001F07DFDDE214DF2295001F078FDF1
:104FC00002214DF22A5001F073FDF2214DF22B50D7
:104FD00001F06EFD02214DF22C5001F069FDFE2121
:104FE0004DF22D5001F064FD03214DF22E5001F0E1
:104FF0005FFD10214DF22F5001F05AFD03214DF2BB
:10500000305001F055FD33214DF2315001F050FD8B
:1050100003214DF2325001F04BFD6D214DF2335022
:1050200001F046FD00214FF4564001F041FD3321CF
:105030004DF2016001F03CFD00214DF2026001F0F3
:1050400037FD34214DF2036001F032FD00214DF2B5
:10505000046001F02DFD3A214DF2056001F028FDBC
:1050600000214DF2066001F023FD4A214DF2076058
:1050700001F01EFD00214DF2086001F019FD5C21D8
:105080004DF2096001F014FD00214DF20A6001F0BB
:105090000FFD81214DF20B6001F00AFD00214DF260
:1050A0000C6001F005FDA6214DF20D6001F000FD40
:1050B00000214DF20E6001F0FBFCE5214DF20F6086
:1050C00001F0F6FC01214DF2106001F0F1FC13211A
:1050D0004DF2116001F0ECFC01214DF2126001F083
:1050E000E7FC54214DF2136001F0E2FC01214DF286
:1050F000146001F0DDFC82214DF2156001F0D8FC56
:1051000001214DF2166001F0D3FCCA214DF2176067
:1051100001F0CEFC02214DF2186001F0C9FC002123
:105120004DF2196001F0C4FC02214DF21A6001F049
:10513000BFFC01214DF21B6001F0BAFC02214DF2CF
:105140001C6001F0B5FC34214DF21D6001F0B0FC93
:1051500002214DF21E6001F0ABFC67214DF21F6091
:1051600001F0A6FC02214DF2206001F0A1FC842197
:105170004DF2216001F09CFC02214DF2226001F011
:1051800097FCA4214DF2236001F092FC02214DF224
:10519000246001F08DFCB7214DF2256001F088FC00
:1051A00002214DF2266001F083FCCF214DF22760F1
:1051B00001F07EFC02214DF2286001F079FCDE2135
:1051C0004DF2296001F074FC02214DF22A6001F0D9
:1051D0006FFCF2214DF22B6001F06AFC02214DF2CE
:1051E0002C6001F065FCFE214DF22D6001F060FCA9
:1051F00003214DF22E6001F05BFC10214DF22F6077
:1052000001F056FC03214DF2306001F051FC3321D6
:105210004DF2316001F04CFC03214DF2326001F09F
:1052200047FC6D214DF2336001F042FC55211846D8
:1052300001F03EFCAA21204601F03AFC522128460A
:1052400001F036FC0821304601F032FC00213846DE
:1052500001F02EFCCC21484601F02AFC00215046EA
:1052600001F026FC0521404601F022FC70214FF49C
:10527000374001F01DFC70214BF2017001F018FC69
:1052800001214FF4384001F013FC03214BF60100DB
:1052900001F00EFC03214BF6020001F009FC032192
:1052A0004BF6030001F004FC02214FF43C4001F0F6
:1052B000FFFB00214BF6014001F0FAFB00214BF609
:1052C000024001F0F5FBD0214FF4494001F0F0FB22
:1052D00002214CF6011001F0EBFB50214CF60210BC
:1052E00001F0E6FB50214CF6031001F0E1FB5021E8
:1052F0004CF6041001F0DCFB00214FF4545001F097
:10530000D7FB55214FF4685001F0D2FB4FF4885081
:1053100001F0B7FB782004F037F94FF4245001F086
:10532000B0FBFDE0A0F513414FF480744FF4E06949
:1053300040F2022A4FF4274625397CD0A0F51341CC
:1053400040F20775283977D0A0F513414FF48877DC
:105350004FF41C56203970D0A0F5134131396DD06F
:10536000A0F5A84108396AD0A0F5A8514FF44077BC
:10537000053965D0A0F5354105397CD0A0F545410A
:10538000053979D0A0F58A41313976D0A0F58A4126
:10539000353973D04045C4D1E22001F072FB1D20A5
:1053A00001F063FB022001F060FB042001F05DFBD3
:1053B000642004F0E9F8E02001F063FB012001F033
:1053C00054FB0A2004F0C6F8E02001F05AFB032049
:1053D00001F04BFB0C2004F0BDF8012001F051FB63
:1053E0000A2004F0B7F8E62001F04BFB2F2001F073
:1053F0003CFBFF2001F039FBFF2001F036FBB02021
:1054000001F03FFB202001F030FB002001F02DFBDC
:10541000032001F02AFB40F21F3001F026FB01209F
:1054200001F023FB40F2DF1001F01FFB002001F030
:105430001CFBB42005E080E04BE103E2AAE27FE33D
:10544000FEE301F01EFB042001F00FFB40F21F40C1
:1054500001F00BFB002001F008FB2E2001F005FB02
:10546000002001F002FB002001F0FFFA002001F013
:10547000FCFA002003E0FDE3FDE3FDE3FDE301F0C2
:10548000F4FAB62001F0FDFA022001F0EEFA4FF432
:10549000037001F0EAFA002001F0E7FA172001F0AA
:1054A000E4FA152001F0E1FA002001F0DEFA002014
:1054B00001F0DBFAF02001F0E4FA032001F0D5FA64
:1054C000292001F0DEFAD02001F0DBFA002001F003
:1054D000CCFABE2001F0D5FA052001F0C6FAFE2074
:1054E00001F0C3FA012001F0C0FA002001F0BDFA7A
:1054F000002001F0BAFA002001F0B7FAB82001F05C
:10550000C0FA032001F0B1FA012001F0AEFABA208E
:1055100001F0B7FA012001F0A8FA642000F0FEFFC4
:105520000020FDF7DFFAFF490120C1F8BC02584610
:10553000FDF7A4FA21B0BDE8F08F47F6F001E520B1
:1055400001F0B6FA2146012001F0B2FA49460220E4
:1055500001F0AEFA41F23001032001F0A9FA002176
:10556000042001F0A5FA5146082001F0A1FA00211B
:10557000092001F09DFA00210A2001F099FA00218A
:105580000C2001F095FA00210D2001F091FA002184
:105590000F2001F08DFA0021102001F089FA072177
:1055A000112001F085FA0021122001F081FA00217A
:1055B000132001F07DFA0021072001F079FA41F271
:1055C0009061102001F074FA40F22721112001F0BF
:1055D0006FFA9D21122001F06BFA4FF4C85113208D
:1055E00001F066FA2521292001F062FA0D212B2015
:1055F00001F05EFA0721302001F05AFA40F203313F
:10560000312001F055FA0321322001F051FA40F225
:105610000621352001F04CFA0821362001F048FA25
:1056200040F20641372001F043FA4FF4417138202F
:1056300001F03EFA0721392001F03AFA40F2026106
:105640003C2001F035FA08213D2001F031FA00211B
:10565000502001F02DFAEF21512001F029FA00210C
:10566000522001F025FA40F23F11532001F020FAB8
:105670003146602001F01CFA0121612001F018FA86
:1056800000216A2001F014FA0021802001F010FAB4
:105690000021812001F00CFA0021822001F008FA9B
:1056A0000021832001F004FA0021842001F000FA97
:1056B0000021852001F0FCF91021902001F0F8F97B
:1056C0004FF4C061922001F0F3F940F2331107204A
:1056D000FEE341F28F01EC2001F0EAF941F23421BE
:1056E000EF2001F0E5F92146012001F0E1F94946FA
:1056F000022001F0DDF941F23001032001F0D8F978
:105700000021042001F0D4F95146082001F0D0F91D
:105710000021092001F0CCF900210A2001F0C8F98C
:1057200001210C2001F0C4F900210D2001F0C0F985
:1057300000210F2001F0BCF90021102001F0B8F980
:105740000721112001F0B4F90021122001F0B0F975
:105750000021132001F0ACF90121072001F0A8F984
:10576000322003F0F7FE41F29041102001F0A0F941
:1057700040F22721112001F09BF9322003F0EAFECC
:105780008A21122001F094F9322003F0E3FE4FF455
:10579000D051132001F08CF90621292001F088F95D
:1057A0000D212B2001F084F9322003F0D3FE0021DB
:1057B000202001F07DF90021212001F079F932202B
:1057C00003F0C8FE0021302001F072F940F20461BC
:1057D000312001F06DF940F20531322001F068F915
:1057E0000021352001F064F940F60941362001F02E
:1057F0005FF94FF40171372001F05AF940F201319D
:10580000382001F055F92946392001F051F90021DD
:105810003C2001F04DF940F60A213D2001F048F905
:10582000322003F097FE0021502001F041F9EF21D2
:10583000512001F03DF90021522001F039F940F2E8
:105840003F114EE10021084601F032F921460120C6
:1058500001F02EF94946022001F02AF941F2300107
:10586000032001F025F90021042001F021F951461F
:10587000082001F01DF90021092001F019F900218B
:105880000A2001F015F901210C2001F011F9002185
:105890000D2001F00DF900210F2001F009F932204F
:1058A00003F058FE40F20111072001F001F9322007
:1058B00003F050FE4FF48651102001F0F9F8072153
:1058C000112001F0F5F83946122001F0F1F84FF4FB
:1058D0003061132001F0ECF80021292001F0E8F8F4
:1058E00044F210012B2001F0E3F80021502001F0D8
:1058F000DFF8EF21512001F0DBF80021522001F008
:10590000D7F840F23F11532001F0D2F83146602021
:1059100001F0CEF80121612001F0CAF800216A20CF
:1059200002E000000080404201F0C2F80021802027
:1059300001F0BEF80021812001F0BAF80021822098
:1059400001F0B6F80021832001F0B2F80021842094
:1059500001F0AEF80021852001F0AAF81021902076
:1059600001F0A6F80021922001F0A2F80121932075
:1059700001F09EF83946952001F09AF80021972011
:1059800001F096F80021982001F092F840F273118E
:10599000072081E341F21401E72001F089F8214654
:1059A000012001F085F84FF40071022001F080F829
:1059B00041F23801032001F07BF85146082001F044
:1059C00077F80021092001F073F800210A2001F086
:1059D0006FF800210C2001F06BF800210D2001F080
:1059E00067F800210F2001F063F80021102001F07A
:1059F0005FF80721112001F05BF80021122001F06F
:105A000057F80021132001F053F8C82003F0A2FD3D
:105A100041F29061102001F04BF840F22721112053
:105A200001F046F8322003F095FD0C21122001F020
:105A30003FF8322003F08EFD4FF40061132001F097
:105A400037F81121292001F033F80B212B2001F028
:105A50002FF8322003F07EFD0021202001F028F8ED
:105A600040F23F131946212001F022F80021302096
:105A700001F01EF84FF483742146312001F018F82C
:105A80000021322001F014F84FF40171352001F0AB
:105A90000FF841F20A61362001F00AF82946372052
:105AA00001F006F82146382001F002F82946392095
:105AB00000F0FEFF40F202413C2000F0F9FF40F60A
:105AC0000F413D2000F0F4FF0021502000F0F0FFD6
:105AD000EF21512000F0ECFF0021522000F0E8FF00
